{
  "transactions": [
    {
      "hash": "0xa190aecb754dea9b731796921d7895e5f3774076f41045ba4f562954d6a5bc6a",
      "transactionType": "CALL",
      "contractName": null,
      "contractAddress": "0x779877a7b0d9e8603169ddbd7836e478b4624789",
      "function": "transferAndCall(address,uint256,bytes)",
      "arguments": [
        "0x9DdfaCa8183c41ad55329BdeeD9F6A8d53168B1B",
        "3000000000000000000",
        "0x54b5c6d5f9e4989c72865a06035e503e9c165631bad610cd7c9caacc7b76a98b"
      ],
      "transaction": {
        "from": "0x5f8682dc42e5f6a5f3c22680b64f5e34c675a825",
        "to": "0x779877a7b0d9e8603169ddbd7836e478b4624789",
        "gas": "0x14cbb",
        "value": "0x0",
        "input": "0x4000aea00000000000000000000000009ddfaca8183c41ad55329bdeed9f6a8d53168b1b00000000000000000000000000000000000000000000000029a2241af62c00000000000000000000000000000000000000000000000000000000000000000060000000000000000000000000000000000000000000000000000000000000002054b5c6d5f9e4989c72865a06035e503e9c165631bad610cd7c9caacc7b76a98b",
        "nonce": "0x8",
        "chainId": "0xaa36a7"
      },
      "additionalContracts": [],
      "isFixedGasLimit": false
    }
  ],
  "receipts": [
    {
      "status": "0x1",
      "cumulativeGasUsed": "0x983361",
      "logs": [
        {
          "address": "0x779877a7b0d9e8603169ddbd7836e478b4624789",
          "topics": [
            "0xddf252ad1be2c89b69c2b068fc378daa952ba7f163c4a11628f55a4df523b3ef",
            "0x0000000000000000000000005f8682dc42e5f6a5f3c22680b64f5e34c675a825",
            "0x0000000000000000000000009ddfaca8183c41ad55329bdeed9f6a8d53168b1b"
          ],
          "data": "0x00000000000000000000000000000000000000000000000029a2241af62c0000",
          "blockHash": "0x83485728fc9746a7fc7f2bf989cde5f7f5338d5471d142d66fdbbff64d4108c8",
          "blockNumber": "0x7319a6",
          "transactionHash": "0xa190aecb754dea9b731796921d7895e5f3774076f41045ba4f562954d6a5bc6a",
          "transactionIndex": "0x82",
          "logIndex": "0x83",
          "removed": false
        },
        {
          "address": "0x779877a7b0d9e8603169ddbd7836e478b4624789",
          "topics": [
            "0xe19260aff97b920c7df27010903aeb9c8d2be5d310a2c67824cf3f15396e4c16",
            "0x0000000000000000000000005f8682dc42e5f6a5f3c22680b64f5e34c675a825",
            "0x0000000000000000000000009ddfaca8183c41ad55329bdeed9f6a8d53168b1b"
          ],
          "data": "0x00000000000000000000000000000000000000000000000029a2241af62c00000000000000000000000000000000000000000000000000000000000000000040000000000000000000000000000000000000000000000000000000000000002054b5c6d5f9e4989c72865a06035e503e9c165631bad610cd7c9caacc7b76a98b",
          "blockHash": "0x83485728fc9746a7fc7f2bf989cde5f7f5338d5471d142d66fdbbff64d4108c8",
          "blockNumber": "0x7319a6",
          "transactionHash": "0xa190aecb754dea9b731796921d7895e5f3774076f41045ba4f562954d6a5bc6a",
          "transactionIndex": "0x82",
          "logIndex": "0x84",
          "removed": false
        },
        {
          "address": "0x9ddfaca8183c41ad55329bdeed9f6a8d53168b1b",
          "topics": [
            "0x1ced9348ff549fceab2ac57cd3a9de38edaaab274b725ee82c23e8fc8c4eec7a",
            "0x54b5c6d5f9e4989c72865a06035e503e9c165631bad610cd7c9caacc7b76a98b"
          ],
          "data": "0x000000000000000000000000000000000000000000000000000000000000000000000000000000000000000000000000000000000000000029a2241af62c0000",
          "blockHash": "0x83485728fc9746a7fc7f2bf989cde5f7f5338d5471d142d66fdbbff64d4108c8",
          "blockNumber": "0x7319a6",
          "transactionHash": "0xa190aecb754dea9b731796921d7895e5f3774076f41045ba4f562954d6a5bc6a",
          "transactionIndex": "0x82",
          "logIndex": "0x85",
          "removed": false
        }
      ],
      "logsBloom": "0x00000004000000000000000000000000000000000020000000000000020000000000000000000000000000000000000000000020008000000000000000000000000000000000000000000008000000000000000000000000000020000020000008000000000000000000000000000000000000000000000000000010000040010000000000000000000000010000800000000020000000000000080000000000000000000000000000000000010000000000000000100000000004000000000000000002000000000000000000000000000000000000000100000000000000000010000000000004800000000000000000000000000000000000000000000000",
      "type": "0x2",
      "transactionHash": "0xa190aecb754dea9b731796921d7895e5f3774076f41045ba4f562954d6a5bc6a",
      "transactionIndex": "0x82",
      "blockHash": "0x83485728fc9746a7fc7f2bf989cde5f7f5338d5471d142d66fdbbff64d4108c8",
      "blockNumber": "0x7319a6",
      "gasUsed": "0xf0e5",
      "effectiveGasPrice": "0x42c240a7",
      "from": "0x5f8682dc42e5f6a5f3c22680b64f5e34c675a825",
      "to": "0x779877a7b0d9e8603169ddbd7836e478b4624789",
      "contractAddress": null
    }
  ],
  "libraries": [],
  "pending": [],
  "returns": {},
  "timestamp": 1737502874,
  "chain": 11155111,
  "commit": "982e670"
}